{
  "contractName": "Mswap",
  "abi": [
    {
      "inputs": [
        {
          "internalType": "address",
          "name": "_mtoken",
          "type": "address"
        }
      ],
      "stateMutability": "nonpayable",
      "type": "constructor"
    },
    {
      "anonymous": false,
      "inputs": [
        {
          "indexed": false,
          "internalType": "string",
          "name": "transactionType",
          "type": "string"
        },
        {
          "indexed": false,
          "internalType": "address",
          "name": "user",
          "type": "address"
        },
        {
          "indexed": false,
          "internalType": "string",
          "name": "tokenName",
          "type": "string"
        },
        {
          "indexed": false,
          "internalType": "string",
          "name": "tokenSymbol",
          "type": "string"
        },
        {
          "indexed": false,
          "internalType": "address",
          "name": "tokenAddress",
          "type": "address"
        },
        {
          "indexed": false,
          "internalType": "uint256",
          "name": "amount",
          "type": "uint256"
        },
        {
          "indexed": false,
          "internalType": "uint256",
          "name": "date",
          "type": "uint256"
        },
        {
          "indexed": false,
          "internalType": "uint256",
          "name": "rate",
          "type": "uint256"
        }
      ],
      "name": "TransactionInfo",
      "type": "event"
    },
    {
      "inputs": [],
      "name": "mtoken",
      "outputs": [
        {
          "internalType": "contract Mtoken",
          "name": "",
          "type": "address"
        }
      ],
      "stateMutability": "view",
      "type": "function",
      "constant": true
    },
    {
      "inputs": [],
      "name": "name",
      "outputs": [
        {
          "internalType": "string",
          "name": "",
          "type": "string"
        }
      ],
      "stateMutability": "view",
      "type": "function",
      "constant": true
    },
    {
      "inputs": [],
      "name": "rate",
      "outputs": [
        {
          "internalType": "uint256",
          "name": "",
          "type": "uint256"
        }
      ],
      "stateMutability": "view",
      "type": "function",
      "constant": true
    },
    {
      "inputs": [],
      "name": "buyToken",
      "outputs": [],
      "stateMutability": "payable",
      "type": "function",
      "payable": true
    },
    {
      "inputs": [
        {
          "internalType": "uint256",
          "name": "_amount",
          "type": "uint256"
        }
      ],
      "name": "sellToken",
      "outputs": [],
      "stateMutability": "nonpayable",
      "type": "function"
    }
  ],
  "bytecode": "0x60806040523480156200001157600080fd5b5060405162001185380380620011858339818101604052810190620000379190620001ef565b6040518060400160405280600e81526020017f4d737761702045786368616e67650000000000000000000000000000000000008152506000908051906020019062000084929190620000d5565b50606460018190555080600260006101000a81548173ffffffffffffffffffffffffffffffffffffffff021916908373ffffffffffffffffffffffffffffffffffffffff1602179055505062000286565b828054620000e39062000250565b90600052602060002090601f01602090048101928262000107576000855562000153565b82601f106200012257805160ff191683800117855562000153565b8280016001018555821562000153579182015b828111156200015257825182559160200191906001019062000135565b5b50905062000162919062000166565b5090565b5b808211156200018157600081600090555060010162000167565b5090565b600080fd5b600073ffffffffffffffffffffffffffffffffffffffff82169050919050565b6000620001b7826200018a565b9050919050565b620001c981620001aa565b8114620001d557600080fd5b50565b600081519050620001e981620001be565b92915050565b60006020828403121562000208576200020762000185565b5b60006200021884828501620001d8565b91505092915050565b7f4e487b7100000000000000000000000000000000000000000000000000000000600052602260045260246000fd5b600060028204905060018216806200026957607f821691505b6020821081141562000280576200027f62000221565b5b50919050565b610eef80620002966000396000f3fe60806040526004361061004a5760003560e01c806305ac77041461004f57806306fdde031461007a5780632397e4d7146100a55780632c4e722e146100ce578063a4821719146100f9575b600080fd5b34801561005b57600080fd5b50610064610103565b6040516100719190610757565b60405180910390f35b34801561008657600080fd5b5061008f610129565b60405161009c919061080b565b60405180910390f35b3480156100b157600080fd5b506100cc60048036038101906100c79190610877565b6101b7565b005b3480156100da57600080fd5b506100e361048b565b6040516100f091906108b3565b60405180910390f35b610101610491565b005b600260009054906101000a900473ffffffffffffffffffffffffffffffffffffffff1681565b60008054610136906108fd565b80601f0160208091040260200160405190810160405280929190818152602001828054610162906108fd565b80156101af5780601f10610184576101008083540402835291602001916101af565b820191906000526020600020905b81548152906001019060200180831161019257829003601f168201915b505050505081565b600260009054906101000a900473ffffffffffffffffffffffffffffffffffffffff1673ffffffffffffffffffffffffffffffffffffffff166323b872dd3330846040518463ffffffff1660e01b815260040161021693929190610950565b6020604051808303816000875af1158015610235573d6000803e3d6000fd5b505050506040513d601f19601f8201168201806040525081019061025991906109bf565b5060006001548261026a9190610a4a565b9050804710156102af576040517f08c379a00000000000000000000000000000000000000000000000000000000081526004016102a690610aed565b60405180910390fd5b3373ffffffffffffffffffffffffffffffffffffffff166108fc829081150290604051600060405180830381858888f193505050501580156102f5573d6000803e3d6000fd5b507f1a4d1af08a2ef863ff9b67c0c21521ccee1d8b703fe0756425359692409c720f33600260009054906101000a900473ffffffffffffffffffffffffffffffffffffffff1673ffffffffffffffffffffffffffffffffffffffff166306fdde036040518163ffffffff1660e01b8152600401600060405180830381865afa158015610385573d6000803e3d6000fd5b505050506040513d6000823e3d601f19601f820116820180604052508101906103ae9190610c33565b600260009054906101000a900473ffffffffffffffffffffffffffffffffffffffff1673ffffffffffffffffffffffffffffffffffffffff166395d89b416040518163ffffffff1660e01b8152600401600060405180830381865afa15801561041b573d6000803e3d6000fd5b505050506040513d6000823e3d601f19601f820116820180604052508101906104449190610c33565b600260009054906101000a900473ffffffffffffffffffffffffffffffffffffffff16864260015460405161047f9796959493929190610cc8565b60405180910390a15050565b60015481565b6000600154346104a19190610d59565b9050600260009054906101000a900473ffffffffffffffffffffffffffffffffffffffff1673ffffffffffffffffffffffffffffffffffffffff1663a9059cbb33836040518363ffffffff1660e01b8152600401610500929190610db3565b6020604051808303816000875af115801561051f573d6000803e3d6000fd5b505050506040513d601f19601f8201168201806040525081019061054391906109bf565b507f1a4d1af08a2ef863ff9b67c0c21521ccee1d8b703fe0756425359692409c720f33600260009054906101000a900473ffffffffffffffffffffffffffffffffffffffff1673ffffffffffffffffffffffffffffffffffffffff166306fdde036040518163ffffffff1660e01b8152600401600060405180830381865afa1580156105d3573d6000803e3d6000fd5b505050506040513d6000823e3d601f19601f820116820180604052508101906105fc9190610c33565b600260009054906101000a900473ffffffffffffffffffffffffffffffffffffffff1673ffffffffffffffffffffffffffffffffffffffff166395d89b416040518163ffffffff1660e01b8152600401600060405180830381865afa158015610669573d6000803e3d6000fd5b505050506040513d6000823e3d601f19601f820116820180604052508101906106929190610c33565b600260009054906101000a900473ffffffffffffffffffffffffffffffffffffffff1685426001546040516106cd9796959493929190610e28565b60405180910390a150565b600073ffffffffffffffffffffffffffffffffffffffff82169050919050565b6000819050919050565b600061071d610718610713846106d8565b6106f8565b6106d8565b9050919050565b600061072f82610702565b9050919050565b600061074182610724565b9050919050565b61075181610736565b82525050565b600060208201905061076c6000830184610748565b92915050565b600081519050919050565b600082825260208201905092915050565b60005b838110156107ac578082015181840152602081019050610791565b838111156107bb576000848401525b50505050565b6000601f19601f8301169050919050565b60006107dd82610772565b6107e7818561077d565b93506107f781856020860161078e565b610800816107c1565b840191505092915050565b6000602082019050818103600083015261082581846107d2565b905092915050565b6000604051905090565b600080fd5b600080fd5b6000819050919050565b61085481610841565b811461085f57600080fd5b50565b6000813590506108718161084b565b92915050565b60006020828403121561088d5761088c610837565b5b600061089b84828501610862565b91505092915050565b6108ad81610841565b82525050565b60006020820190506108c860008301846108a4565b92915050565b7f4e487b7100000000000000000000000000000000000000000000000000000000600052602260045260246000fd5b6000600282049050600182168061091557607f821691505b60208210811415610929576109286108ce565b5b50919050565b600061093a826106d8565b9050919050565b61094a8161092f565b82525050565b60006060820190506109656000830186610941565b6109726020830185610941565b61097f60408301846108a4565b949350505050565b60008115159050919050565b61099c81610987565b81146109a757600080fd5b50565b6000815190506109b981610993565b92915050565b6000602082840312156109d5576109d4610837565b5b60006109e3848285016109aa565b91505092915050565b7f4e487b7100000000000000000000000000000000000000000000000000000000600052601260045260246000fd5b7f4e487b7100000000000000000000000000000000000000000000000000000000600052601160045260246000fd5b6000610a5582610841565b9150610a6083610841565b925082610a7057610a6f6109ec565b5b828204905092915050565b7f736f72727920776520646f6e2774206861766520657468657220666f7220746860008201527f617420616d6f756e7420617420746865206d6f6d656e74000000000000000000602082015250565b6000610ad760378361077d565b9150610ae282610a7b565b604082019050919050565b60006020820190508181036000830152610b0681610aca565b9050919050565b600080fd5b600080fd5b7f4e487b7100000000000000000000000000000000000000000000000000000000600052604160045260246000fd5b610b4f826107c1565b810181811067ffffffffffffffff82111715610b6e57610b6d610b17565b5b80604052505050565b6000610b8161082d565b9050610b8d8282610b46565b919050565b600067ffffffffffffffff821115610bad57610bac610b17565b5b610bb6826107c1565b9050602081019050919050565b6000610bd6610bd184610b92565b610b77565b905082815260208101848484011115610bf257610bf1610b12565b5b610bfd84828561078e565b509392505050565b600082601f830112610c1a57610c19610b0d565b5b8151610c2a848260208601610bc3565b91505092915050565b600060208284031215610c4957610c48610837565b5b600082015167ffffffffffffffff811115610c6757610c6661083c565b5b610c7384828501610c05565b91505092915050565b7f534f4c4400000000000000000000000000000000000000000000000000000000600082015250565b6000610cb260048361077d565b9150610cbd82610c7c565b602082019050919050565b6000610100820190508181036000830152610ce281610ca5565b9050610cf1602083018a610941565b8181036040830152610d0381896107d2565b90508181036060830152610d1781886107d2565b9050610d266080830187610941565b610d3360a08301866108a4565b610d4060c08301856108a4565b610d4d60e08301846108a4565b98975050505050505050565b6000610d6482610841565b9150610d6f83610841565b9250817fffffffffffffffffffffffffffffffffffffffffffffffffffffffffffffffff0483118215151615610da857610da7610a1b565b5b828202905092915050565b6000604082019050610dc86000830185610941565b610dd560208301846108a4565b9392505050565b7f5055524348415345000000000000000000000000000000000000000000000000600082015250565b6000610e1260088361077d565b9150610e1d82610ddc565b602082019050919050565b6000610100820190508181036000830152610e4281610e05565b9050610e51602083018a610941565b8181036040830152610e6381896107d2565b90508181036060830152610e7781886107d2565b9050610e866080830187610941565b610e9360a08301866108a4565b610ea060c08301856108a4565b610ead60e08301846108a4565b9897505050505050505056fea26469706673582212208cb4cade9c00260f390bf6b6d81ff3180ae3ed669c38ed5c8533a1f05a47d51664736f6c634300080a0033",
  "immutableReferences": {},
  "source": "// SPDX-License-Identifier: MIT\npragma solidity >=0.4.22 <0.9.0;\nimport './Mtoken.sol';\n\ncontract Mswap {\n    string public name;\n    uint public rate;\n    Mtoken public mtoken;\n    \n    \n    constructor(address _mtoken) {\n        name = \"Mswap Exchange\";\n        rate = 100;\n        mtoken = Mtoken(_mtoken);\n    }\n\n    event TransactionInfo(\n        string transactionType,\n        address user,\n        string tokenName,\n        string tokenSymbol,\n        address tokenAddress,\n        uint amount,\n        uint date,\n        uint rate\n    );\n\n\n    function buyToken() external payable {\n        uint amount = msg.value * rate;\n        mtoken.transfer(msg.sender, amount);\n        emit TransactionInfo(\"PURCHASE\",msg.sender, mtoken.name(), mtoken.symbol(), address(mtoken), amount, block.timestamp, rate);\n    }\n\n    function sellToken(uint _amount) external {\n        mtoken.transferFrom(msg.sender, address(this), _amount);\n        uint etherAmount = _amount / rate;\n        require(address(this).balance >= etherAmount, \"sorry we don't have ether for that amount at the moment\");\n        payable(msg.sender).transfer(etherAmount);\n        emit TransactionInfo(\"SOLD\",msg.sender, mtoken.name(), mtoken.symbol(), address(mtoken), _amount, block.timestamp, rate);\n    }\n\n}",
  "sourcePath": "C:\\Users\\HP\\Desktop\\Dapps\\Mswap\\contracts\\Mswap.sol",
  "compiler": {
    "name": "solc",
    "version": "0.8.10+commit.fc410830.Emscripten.clang"
  },
  "schemaVersion": "3.4.4",
  "updatedAt": "2022-02-05T16:50:29.245Z",
  "networkType": "ethereum",
  "devdoc": {
    "kind": "dev",
    "methods": {},
    "version": 1
  },
  "userdoc": {
    "kind": "user",
    "methods": {},
    "version": 1
  }
}